{
    "contractName": "Sale",
    "abi": [
        {
            "inputs": [
                {
                    "internalType": "uint256",
                    "name": "_maxSupply",
                    "type": "uint256"
                },
                {
                    "internalType": "address",
                    "name": "_dispatcher",
                    "type": "address"
                },
                {
                    "internalType": "address",
                    "name": "_tokenAddress",
                    "type": "address"
                }
            ],
            "stateMutability": "nonpayable",
            "type": "constructor"
        },
        {
            "anonymous": false,
            "inputs": [
                {
                    "indexed": true,
                    "internalType": "address",
                    "name": "_dispatcher",
                    "type": "address"
                }
            ],
            "name": "DispatcherChange",
            "type": "event"
        },
        {
            "anonymous": false,
            "inputs": [
                {
                    "indexed": true,
                    "internalType": "address",
                    "name": "previousOwner",
                    "type": "address"
                },
                {
                    "indexed": true,
                    "internalType": "address",
                    "name": "newOwner",
                    "type": "address"
                }
            ],
            "name": "OwnershipTransferred",
            "type": "event"
        },
        {
            "anonymous": false,
            "inputs": [
                {
                    "indexed": false,
                    "internalType": "address",
                    "name": "account",
                    "type": "address"
                }
            ],
            "name": "Paused",
            "type": "event"
        },
        {
            "anonymous": false,
            "inputs": [
                {
                    "indexed": true,
                    "internalType": "uint256",
                    "name": "index",
                    "type": "uint256"
                },
                {
                    "indexed": false,
                    "internalType": "bool",
                    "name": "isPublic",
                    "type": "bool"
                },
                {
                    "indexed": false,
                    "internalType": "uint256",
                    "name": "_minimunEntry",
                    "type": "uint256"
                },
                {
                    "indexed": false,
                    "internalType": "uint256",
                    "name": "_price",
                    "type": "uint256"
                },
                {
                    "indexed": false,
                    "internalType": "uint256",
                    "name": "_discount",
                    "type": "uint256"
                },
                {
                    "indexed": false,
                    "internalType": "uint256",
                    "name": "_endAt",
                    "type": "uint256"
                },
                {
                    "indexed": false,
                    "internalType": "uint256",
                    "name": "_supply",
                    "type": "uint256"
                }
            ],
            "name": "PhaseCreated",
            "type": "event"
        },
        {
            "anonymous": false,
            "inputs": [
                {
                    "indexed": false,
                    "internalType": "bool",
                    "name": "_over",
                    "type": "bool"
                }
            ],
            "name": "PhaseOver",
            "type": "event"
        },
        {
            "anonymous": false,
            "inputs": [
                {
                    "indexed": true,
                    "internalType": "address",
                    "name": "_account",
                    "type": "address"
                },
                {
                    "indexed": false,
                    "internalType": "uint256",
                    "name": "_amount",
                    "type": "uint256"
                },
                {
                    "indexed": false,
                    "internalType": "uint256",
                    "name": "_price",
                    "type": "uint256"
                },
                {
                    "indexed": false,
                    "internalType": "uint256",
                    "name": "_id",
                    "type": "uint256"
                }
            ],
            "name": "Purchase",
            "type": "event"
        },
        {
            "anonymous": false,
            "inputs": [
                {
                    "indexed": false,
                    "internalType": "address",
                    "name": "account",
                    "type": "address"
                }
            ],
            "name": "Unpaused",
            "type": "event"
        },
        {
            "inputs": [
                {
                    "internalType": "address",
                    "name": "_account",
                    "type": "address"
                }
            ],
            "name": "addToWhitelist",
            "outputs": [],
            "stateMutability": "nonpayable",
            "type": "function"
        },
        {
            "inputs": [
                {
                    "internalType": "uint256",
                    "name": "_tokenAmount",
                    "type": "uint256"
                }
            ],
            "name": "buyToken",
            "outputs": [],
            "stateMutability": "payable",
            "type": "function"
        },
        {
            "inputs": [],
            "name": "cancelPhase",
            "outputs": [],
            "stateMutability": "nonpayable",
            "type": "function"
        },
        {
            "inputs": [
                {
                    "internalType": "address",
                    "name": "_dispatcher",
                    "type": "address"
                }
            ],
            "name": "changeDispatcher",
            "outputs": [],
            "stateMutability": "nonpayable",
            "type": "function"
        },
        {
            "inputs": [
                {
                    "internalType": "bool",
                    "name": "_isPublic",
                    "type": "bool"
                },
                {
                    "internalType": "uint256",
                    "name": "_minimunEntry",
                    "type": "uint256"
                },
                {
                    "internalType": "uint256",
                    "name": "_price",
                    "type": "uint256"
                },
                {
                    "internalType": "uint256",
                    "name": "_discount",
                    "type": "uint256"
                },
                {
                    "internalType": "uint256",
                    "name": "_endAt",
                    "type": "uint256"
                },
                {
                    "internalType": "uint256",
                    "name": "_supply",
                    "type": "uint256"
                },
                {
                    "internalType": "uint256",
                    "name": "_time",
                    "type": "uint256"
                }
            ],
            "name": "createPhase",
            "outputs": [],
            "stateMutability": "nonpayable",
            "type": "function"
        },
        {
            "inputs": [],
            "name": "currentPhase",
            "outputs": [
                {
                    "internalType": "uint256",
                    "name": "",
                    "type": "uint256"
                }
            ],
            "stateMutability": "view",
            "type": "function"
        },
        {
            "inputs": [],
            "name": "dispatcher",
            "outputs": [
                {
                    "internalType": "address",
                    "name": "",
                    "type": "address"
                }
            ],
            "stateMutability": "view",
            "type": "function"
        },
        {
            "inputs": [],
            "name": "getAmountLock",
            "outputs": [
                {
                    "internalType": "uint256",
                    "name": "",
                    "type": "uint256"
                }
            ],
            "stateMutability": "view",
            "type": "function"
        },
        {
            "inputs": [],
            "name": "getcurrentPhase",
            "outputs": [
                {
                    "components": [
                        {
                            "internalType": "bool",
                            "name": "isPublic",
                            "type": "bool"
                        },
                        {
                            "internalType": "uint256",
                            "name": "minimunEntry",
                            "type": "uint256"
                        },
                        {
                            "internalType": "uint256",
                            "name": "price",
                            "type": "uint256"
                        },
                        {
                            "internalType": "uint256",
                            "name": "discount",
                            "type": "uint256"
                        },
                        {
                            "internalType": "uint256",
                            "name": "endAt",
                            "type": "uint256"
                        },
                        {
                            "internalType": "uint256",
                            "name": "initSupply",
                            "type": "uint256"
                        },
                        {
                            "internalType": "uint256",
                            "name": "supply",
                            "type": "uint256"
                        },
                        {
                            "internalType": "bool",
                            "name": "over",
                            "type": "bool"
                        },
                        {
                            "internalType": "uint256",
                            "name": "time",
                            "type": "uint256"
                        }
                    ],
                    "internalType": "struct Sale.Phase",
                    "name": "",
                    "type": "tuple"
                }
            ],
            "stateMutability": "view",
            "type": "function"
        },
        {
            "inputs": [],
            "name": "id",
            "outputs": [
                {
                    "internalType": "uint256",
                    "name": "",
                    "type": "uint256"
                }
            ],
            "stateMutability": "view",
            "type": "function"
        },
        {
            "inputs": [
                {
                    "internalType": "address",
                    "name": "",
                    "type": "address"
                },
                {
                    "internalType": "uint256",
                    "name": "",
                    "type": "uint256"
                }
            ],
            "name": "idsAddress",
            "outputs": [
                {
                    "internalType": "uint256",
                    "name": "",
                    "type": "uint256"
                }
            ],
            "stateMutability": "view",
            "type": "function"
        },
        {
            "inputs": [],
            "name": "maxSupply",
            "outputs": [
                {
                    "internalType": "uint256",
                    "name": "",
                    "type": "uint256"
                }
            ],
            "stateMutability": "view",
            "type": "function"
        },
        {
            "inputs": [],
            "name": "owner",
            "outputs": [
                {
                    "internalType": "address",
                    "name": "",
                    "type": "address"
                }
            ],
            "stateMutability": "view",
            "type": "function"
        },
        {
            "inputs": [],
            "name": "pauseMint",
            "outputs": [],
            "stateMutability": "nonpayable",
            "type": "function"
        },
        {
            "inputs": [],
            "name": "paused",
            "outputs": [
                {
                    "internalType": "bool",
                    "name": "",
                    "type": "bool"
                }
            ],
            "stateMutability": "view",
            "type": "function"
        },
        {
            "inputs": [
                {
                    "internalType": "uint256",
                    "name": "",
                    "type": "uint256"
                }
            ],
            "name": "phases",
            "outputs": [
                {
                    "internalType": "bool",
                    "name": "isPublic",
                    "type": "bool"
                },
                {
                    "internalType": "uint256",
                    "name": "minimunEntry",
                    "type": "uint256"
                },
                {
                    "internalType": "uint256",
                    "name": "price",
                    "type": "uint256"
                },
                {
                    "internalType": "uint256",
                    "name": "discount",
                    "type": "uint256"
                },
                {
                    "internalType": "uint256",
                    "name": "endAt",
                    "type": "uint256"
                },
                {
                    "internalType": "uint256",
                    "name": "initSupply",
                    "type": "uint256"
                },
                {
                    "internalType": "uint256",
                    "name": "supply",
                    "type": "uint256"
                },
                {
                    "internalType": "bool",
                    "name": "over",
                    "type": "bool"
                },
                {
                    "internalType": "uint256",
                    "name": "time",
                    "type": "uint256"
                }
            ],
            "stateMutability": "view",
            "type": "function"
        },
        {
            "inputs": [
                {
                    "internalType": "uint256",
                    "name": "_id",
                    "type": "uint256"
                }
            ],
            "name": "release",
            "outputs": [],
            "stateMutability": "nonpayable",
            "type": "function"
        },
        {
            "inputs": [
                {
                    "internalType": "address",
                    "name": "_account",
                    "type": "address"
                }
            ],
            "name": "removeWhitelistedAddress",
            "outputs": [],
            "stateMutability": "nonpayable",
            "type": "function"
        },
        {
            "inputs": [],
            "name": "renounceOwnership",
            "outputs": [],
            "stateMutability": "nonpayable",
            "type": "function"
        },
        {
            "inputs": [],
            "name": "supply",
            "outputs": [
                {
                    "internalType": "uint256",
                    "name": "",
                    "type": "uint256"
                }
            ],
            "stateMutability": "view",
            "type": "function"
        },
        {
            "inputs": [],
            "name": "tokenAddress",
            "outputs": [
                {
                    "internalType": "address",
                    "name": "",
                    "type": "address"
                }
            ],
            "stateMutability": "view",
            "type": "function"
        },
        {
            "inputs": [
                {
                    "internalType": "uint256",
                    "name": "",
                    "type": "uint256"
                }
            ],
            "name": "tokenLock",
            "outputs": [
                {
                    "internalType": "address",
                    "name": "tokensOwner",
                    "type": "address"
                },
                {
                    "internalType": "uint256",
                    "name": "amount",
                    "type": "uint256"
                },
                {
                    "internalType": "uint256",
                    "name": "time",
                    "type": "uint256"
                }
            ],
            "stateMutability": "view",
            "type": "function"
        },
        {
            "inputs": [],
            "name": "totalPhase",
            "outputs": [
                {
                    "internalType": "uint256",
                    "name": "",
                    "type": "uint256"
                }
            ],
            "stateMutability": "view",
            "type": "function"
        },
        {
            "inputs": [
                {
                    "internalType": "address",
                    "name": "newOwner",
                    "type": "address"
                }
            ],
            "name": "transferOwnership",
            "outputs": [],
            "stateMutability": "nonpayable",
            "type": "function"
        },
        {
            "inputs": [],
            "name": "unpauseMint",
            "outputs": [],
            "stateMutability": "nonpayable",
            "type": "function"
        },
        {
            "inputs": [
                {
                    "internalType": "address",
                    "name": "_account",
                    "type": "address"
                },
                {
                    "internalType": "uint256",
                    "name": "_amount",
                    "type": "uint256"
                }
            ],
            "name": "withdraw",
            "outputs": [],
            "stateMutability": "nonpayable",
            "type": "function"
        }
    ],
    "bytecode": "60a060405234801561001057600080fd5b506040516200185338038062001853833981016040819052610031916100df565b600080546001600160a01b031916339081178255604051909182917f8be0079c531659141344cd1fd0a4f28419497f9722a3daafe3b4186f6b6457e0908290a3506000805460ff60a01b1916815560058190556007556080839052600892909255600980546001600160a01b039283166001600160a01b031991821617909155600a805492909316911617905561011b565b80516001600160a01b03811681146100da57600080fd5b919050565b6000806000606084860312156100f457600080fd5b83519250610104602085016100c3565b9150610112604085016100c3565b90509250925092565b60805161171c620001376000396000610550015261171c6000f3fe6080604052600436106101815760003560e01c806379884269116100d1578063cb7e90571161008a578063e43252d711610064578063e43252d714610572578063e5dc57fc14610592578063f2fde38b146105b9578063f3fef3a3146105d957600080fd5b8063cb7e905714610509578063cd85cdb514610529578063d5abeb011461053e57600080fd5b8063798842691461039a5780638da5cb5b1461040557806392d2ff06146104375780639d76ea581461044d578063af640d0f1461046d578063bb543f5f1461048357600080fd5b80632e37eef61161013e5780635c975abb116101185780635c975abb1461031b5780636e9a320c14610345578063715018a6146103655780637579e00a1461037a57600080fd5b80632e37eef61461022457806337bdc99b146102db578063530cd5ab146102fb57600080fd5b8063047fc9aa14610186578063055ad42e146101af5780630a33c90a146101c55780630f25941a146101e75780631a8bd2da146101fc5780632d296bf114610211575b600080fd5b34801561019257600080fd5b5061019c60085481565b6040519081526020015b60405180910390f35b3480156101bb57600080fd5b5061019c60055481565b3480156101d157600080fd5b506101e56101e0366004611528565b6105f9565b005b3480156101f357600080fd5b506101e5610682565b34801561020857600080fd5b506101e5610701565b6101e561021f3660046115e6565b610735565b34801561023057600080fd5b5061029361023f3660046115e6565b600160208190526000918252604090912080549181015460028201546003830154600484015460058501546006860154600787015460089097015460ff988916989697959694959394929391929091169089565b604080519915158a5260208a0198909852968801959095526060870193909352608086019190915260a085015260c0840152151560e0830152610100820152610120016101a6565b3480156102e757600080fd5b506101e56102f63660046115e6565b610bb2565b34801561030757600080fd5b506101e5610316366004611528565b610d26565b34801561032757600080fd5b50600054600160a01b900460ff1660405190151581526020016101a6565b34801561035157600080fd5b506101e5610360366004611591565b610d71565b34801561037157600080fd5b506101e56110a2565b34801561038657600080fd5b5061019c61039536600461154a565b611116565b3480156103a657600080fd5b506103e06103b53660046115e6565b6003602052600090815260409020805460018201546002909201546001600160a01b03909116919083565b604080516001600160a01b0390941684526020840192909252908201526060016101a6565b34801561041157600080fd5b506000546001600160a01b03165b6040516001600160a01b0390911681526020016101a6565b34801561044357600080fd5b5061019c60075481565b34801561045957600080fd5b50600a5461041f906001600160a01b031681565b34801561047957600080fd5b5061019c60065481565b34801561048f57600080fd5b50610498611147565b6040516101a691906000610120820190508251151582526020830151602083015260408301516040830152606083015160608301526080830151608083015260a083015160a083015260c083015160c083015260e0830151151560e083015261010080840151818401525092915050565b34801561051557600080fd5b5060095461041f906001600160a01b031681565b34801561053557600080fd5b506101e561121d565b34801561054a57600080fd5b5061019c7f000000000000000000000000000000000000000000000000000000000000000081565b34801561057e57600080fd5b506101e561058d366004611528565b61124f565b34801561059e57600080fd5b5060065460009081526003602052604090206001015461019c565b3480156105c557600080fd5b506101e56105d4366004611528565b61129d565b3480156105e557600080fd5b506101e56105f436600461154a565b611387565b6000546001600160a01b0316331461062c5760405162461bcd60e51b8152600401610623906115ff565b60405180910390fd5b6040516001600160a01b038216907f92b885c3da6a6d52c13130f8dcaa55efff1188d78078bd0aac02fc01ed493faf90600090a2600980546001600160a01b0319166001600160a01b0392909216919091179055565b6000546001600160a01b031633146106ac5760405162461bcd60e51b8152600401610623906115ff565b600554600090815260016020818152604092839020600701805460ff19168317905591519081527f0773b1bc4292ec2db340bde1f65478f936986eaca8deee2c306b42c31c27f4ad91015b60405180910390a1565b6000546001600160a01b0316331461072b5760405162461bcd60e51b8152600401610623906115ff565b6107336113ec565b565b600054600160a01b900460ff16156107825760405162461bcd60e51b815260206004820152601060248201526f14185d5cd8589b194e881c185d5cd95960821b6044820152606401610623565b60055460009081526001602052604090205460ff166107f2573360009081526002602052604090205460ff166107f25760405162461bcd60e51b815260206004820152601560248201527454686973207068617365206973207072697661746560581b6044820152606401610623565b60055460009081526001602052604090206004015442111561086157600554600090815260016020818152604092839020600701805460ff19168317905591519081527f0773b1bc4292ec2db340bde1f65478f936986eaca8deee2c306b42c31c27f4ad910160405180910390a15b60055460009081526001602052604090206007015460ff16156108d45760405162461bcd60e51b815260206004820152602560248201527f54686973207068617365206973206f7665722c207761697420666f7220746865604482015264081b995e1d60da1b6064820152608401610623565b60055460009081526001602052604090206006015481111561092d5760405162461bcd60e51b81526020600482015260126024820152714e6f7420656e6f7567687420737570706c7960701b6044820152606401610623565b600554600090815260016020819052604090912001548110156109925760405162461bcd60e51b815260206004820152601860248201527f54686572652061726520746f6f2066657720746f6b656e7300000000000000006044820152606401610623565b6005546000908152600160205260408120600301546103e8906109b5908261168d565b6005546000908152600160205260409020600201546109d4919061166e565b6109de908461164c565b6109e8919061164c565b905034811115610a2f5760405162461bcd60e51b81526020600482015260126024820152712737ba1032b737bab3b41022aa2417a1272160711b6044820152606401610623565b60068054600090815260036020908152604080832080546001600160a01b03191633179055925482528282206001908101869055600554835290522060080154610a7c426201518061166e565b610a869190611634565b6006805460009081526003602090815260408083206002019490945533825260048152928120825481546001810183559183529382200192909255805491610acd836116a4565b909155505060055460009081526001602052604081206006018054849290610af690849061168d565b9091555050600554600090815260016020526040902060060154610b6757600554600090815260016020818152604092839020600701805460ff19168317905591519081527f0773b1bc4292ec2db340bde1f65478f936986eaca8deee2c306b42c31c27f4ad910160405180910390a15b60065460408051848152602081018490529081019190915233907f5bc97d73357ac0d035d4b9268a69240988a5776b8a4fcced3dbc223960123f409060600160405180910390a25050565b600081815260036020526040902060020154421115610c065760405162461bcd60e51b815260206004820152601060248201526f10d85b9b9bdd0818db185a5b481e595d60821b6044820152606401610623565b6000818152600360205260409020546001600160a01b03163314610c6c5760405162461bcd60e51b815260206004820152601e60248201527f5468697320696420646f6573206e6f742062656c6f6e6720746f20796f7500006044820152606401610623565b600a54600082815260036020526040908190208054600190910154915163a9059cbb60e01b81526001600160a01b03918216600482015260248101929092529091169063a9059cbb90604401602060405180830381600087803b158015610cd257600080fd5b505af1158015610ce6573d6000803e3d6000fd5b505050506040513d601f19601f82011682018060405250810190610d0a9190611574565b5060009081526003602052604081206001810182905560020155565b6000546001600160a01b03163314610d505760405162461bcd60e51b8152600401610623906115ff565b6001600160a01b03166000908152600260205260409020805460ff19169055565b6000546001600160a01b03163314610d9b5760405162461bcd60e51b8152600401610623906115ff565b60075460408051891515815260208101899052908101879052606081018690526080810185905260a081018490527f0852638e4a9128dd779adb558cd27d457aba019e1e83496d17beebfed3065b549060c00160405180910390a260078054600091600191839182610e0c836116a4565b9091555081526020810191909152604001600020805460ff1916891515178155600181018890556002810187905590506103e98510610e995760405162461bcd60e51b8152602060048201526024808201527f446973636f756e742063616e6e6f742062652067726561746572207468616e206044820152633130302560e01b6064820152608401610623565b60038101859055428411610f075760405162461bcd60e51b815260206004820152602f60248201527f54686520656e64206f66207468652070686173652073686f756c64206265206760448201526e726561746572207468616e206e6f7760881b6064820152608401610623565b600481018490556005810183905560078101805460ff19169055610f2e826201518061166e565b8160080181905550826008541015610f885760405162461bcd60e51b815260206004820152601960248201527f4e6f7420656e6f75676820737570706c7920746f206d696e74000000000000006044820152606401610623565b8260086000828254610f9a919061168d565b909155505060068101839055600a546009546040516323b872dd60e01b81526001600160a01b039182166004820152306024820152604481018690529116906323b872dd90606401602060405180830381600087803b158015610ffc57600080fd5b505af1158015611010573d6000803e3d6000fd5b505050506040513d601f19601f820116820180604052508101906110349190611574565b6110985760405162461bcd60e51b815260206004820152602f60248201527f54686520746f6b656e20636f756c64206e6f74206265207472616e736665727260448201526e656420746f2074686520706861736560881b6064820152608401610623565b5050505050505050565b6000546001600160a01b031633146110cc5760405162461bcd60e51b8152600401610623906115ff565b600080546040516001600160a01b03909116907f8be0079c531659141344cd1fd0a4f28419497f9722a3daafe3b4186f6b6457e0908390a3600080546001600160a01b0319169055565b6004602052816000526040600020818154811061113257600080fd5b90600052602060002001600091509150505481565b61119a604051806101200160405280600015158152602001600081526020016000815260200160008152602001600081526020016000815260200160008152602001600015158152602001600081525090565b5060058054600090815260016020818152604092839020835161012081018552815460ff90811615158252938201549281019290925260028101549382019390935260038301546060820152600483015460808201529282015460a0840152600682015460c0840152600782015416151560e08301526008015461010082015290565b6000546001600160a01b031633146112475760405162461bcd60e51b8152600401610623906115ff565b610733611484565b6000546001600160a01b031633146112795760405162461bcd60e51b8152600401610623906115ff565b6001600160a01b03166000908152600260205260409020805460ff19166001179055565b6000546001600160a01b031633146112c75760405162461bcd60e51b8152600401610623906115ff565b6001600160a01b03811661132c5760405162461bcd60e51b815260206004820152602660248201527f4f776e61626c653a206e6577206f776e657220697320746865207a65726f206160448201526564647265737360d01b6064820152608401610623565b600080546040516001600160a01b03808516939216917f8be0079c531659141344cd1fd0a4f28419497f9722a3daafe3b4186f6b6457e091a3600080546001600160a01b0319166001600160a01b0392909216919091179055565b6000546001600160a01b031633146113b15760405162461bcd60e51b8152600401610623906115ff565b6040516001600160a01b0383169082156108fc029083906000818181858888f193505050501580156113e7573d6000803e3d6000fd5b505050565b600054600160a01b900460ff1661143c5760405162461bcd60e51b815260206004820152601460248201527314185d5cd8589b194e881b9bdd081c185d5cd95960621b6044820152606401610623565b6000805460ff60a01b191690557f5db9ee0a495bf2e6ff9c91a7834c1ba4fdd244a5e8aa4e537bd38aeae4b073aa335b6040516001600160a01b0390911681526020016106f7565b600054600160a01b900460ff16156114d15760405162461bcd60e51b815260206004820152601060248201526f14185d5cd8589b194e881c185d5cd95960821b6044820152606401610623565b6000805460ff60a01b1916600160a01b1790557f62e78cea01bee320cd4e420270b5ea74000d11b0c9f74754ebdbfc544b05a25861146c3390565b80356001600160a01b038116811461152357600080fd5b919050565b60006020828403121561153a57600080fd5b6115438261150c565b9392505050565b6000806040838503121561155d57600080fd5b6115668361150c565b946020939093013593505050565b60006020828403121561158657600080fd5b8151611543816116d5565b600080600080600080600060e0888a0312156115ac57600080fd5b87356115b7816116d5565b9960208901359950604089013598606081013598506080810135975060a0810135965060c00135945092505050565b6000602082840312156115f857600080fd5b5035919050565b6020808252818101527f4f776e61626c653a2063616c6c6572206973206e6f7420746865206f776e6572604082015260600190565b60008219821115611647576116476116bf565b500190565b60008261166957634e487b7160e01b600052601260045260246000fd5b500490565b6000816000190483118215151615611688576116886116bf565b500290565b60008282101561169f5761169f6116bf565b500390565b60006000198214156116b8576116b86116bf565b5060010190565b634e487b7160e01b600052601160045260246000fd5b80151581146116e357600080fd5b5056fea264697066735822122069f18cbff79e1d54a4981cbe27d762f23f20f8ae0f4ff3c461e6e2ef13e6d14c64736f6c63430008070033",
    "sourcePath": "c:/Users/Crisolita/DEX_EYSS/contracts/Sale.sol",
    "compiler": {
        "name": "solc",
        "version": "0.8.7+commit.e28d00a7"
    },
    "functionHashes": {
        "addToWhitelist(address)": "e43252d7",
        "buyToken(uint256)": "2d296bf1",
        "cancelPhase()": "0f25941a",
        "changeDispatcher(address)": "0a33c90a",
        "createPhase(bool,uint256,uint256,uint256,uint256,uint256,uint256)": "6e9a320c",
        "currentPhase()": "055ad42e",
        "dispatcher()": "cb7e9057",
        "getAmountLock()": "e5dc57fc",
        "getcurrentPhase()": "bb543f5f",
        "id()": "af640d0f",
        "idsAddress(address,uint256)": "7579e00a",
        "maxSupply()": "d5abeb01",
        "owner()": "8da5cb5b",
        "pauseMint()": "cd85cdb5",
        "paused()": "5c975abb",
        "phases(uint256)": "2e37eef6",
        "release(uint256)": "37bdc99b",
        "removeWhitelistedAddress(address)": "530cd5ab",
        "renounceOwnership()": "715018a6",
        "supply()": "047fc9aa",
        "tokenAddress()": "9d76ea58",
        "tokenLock(uint256)": "79884269",
        "totalPhase()": "92d2ff06",
        "transferOwnership(address)": "f2fde38b",
        "unpauseMint()": "1a8bd2da",
        "withdraw(address,uint256)": "f3fef3a3"
    },
    "gasEstimates": {
        "creation": {
            "codeDepositCost": "1183200",
            "executionCost": "infinite",
            "totalCost": "infinite"
        },
        "external": {
            "addToWhitelist(address)": "26794",
            "buyToken(uint256)": "infinite",
            "cancelPhase()": "29840",
            "changeDispatcher(address)": "27946",
            "createPhase(bool,uint256,uint256,uint256,uint256,uint256,uint256)": "infinite",
            "currentPhase()": "2330",
            "dispatcher()": "2382",
            "getAmountLock()": "4522",
            "getcurrentPhase()": "22166",
            "id()": "2395",
            "idsAddress(address,uint256)": "4844",
            "maxSupply()": "infinite",
            "owner()": "2365",
            "pauseMint()": "29858",
            "paused()": "2354",
            "phases(uint256)": "19605",
            "release(uint256)": "infinite",
            "removeWhitelistedAddress(address)": "26834",
            "renounceOwnership()": "30254",
            "supply()": "2308",
            "tokenAddress()": "2426",
            "tokenLock(uint256)": "6778",
            "totalPhase()": "2351",
            "transferOwnership(address)": "30488",
            "unpauseMint()": "29874",
            "withdraw(address,uint256)": "infinite"
        }
    }
}