{
  "address": "0xA002e3407760B916764f1D820DE3029e80c1ba50",
  "abi": [
    {
      "anonymous": false,
      "inputs": [
        {
          "indexed": false,
          "internalType": "address",
          "name": "_buyer",
          "type": "address"
        },
        {
          "indexed": false,
          "internalType": "uint256",
          "name": "_id",
          "type": "uint256"
        }
      ],
      "name": "Claims",
      "type": "event"
    },
    {
      "anonymous": false,
      "inputs": [
        {
          "indexed": true,
          "internalType": "address",
          "name": "_dispatcher",
          "type": "address"
        }
      ],
      "name": "DispatcherChange",
      "type": "event"
    },
    {
      "anonymous": false,
      "inputs": [
        {
          "indexed": false,
          "internalType": "bool",
          "name": "isPublic",
          "type": "bool"
        },
        {
          "indexed": false,
          "internalType": "uint256",
          "name": "_minimunEntry",
          "type": "uint256"
        },
        {
          "indexed": false,
          "internalType": "uint256",
          "name": "_price",
          "type": "uint256"
        },
        {
          "indexed": false,
          "internalType": "uint256",
          "name": "_endAt",
          "type": "uint256"
        },
        {
          "indexed": false,
          "internalType": "uint256",
          "name": "_supply",
          "type": "uint256"
        }
      ],
      "name": "PhaseCreated",
      "type": "event"
    },
    {
      "anonymous": false,
      "inputs": [
        {
          "indexed": false,
          "internalType": "bool",
          "name": "_over",
          "type": "bool"
        }
      ],
      "name": "PhaseOver",
      "type": "event"
    },
    {
      "anonymous": false,
      "inputs": [
        {
          "indexed": true,
          "internalType": "address",
          "name": "_account",
          "type": "address"
        },
        {
          "indexed": false,
          "internalType": "uint256",
          "name": "_amount",
          "type": "uint256"
        },
        {
          "indexed": false,
          "internalType": "uint256",
          "name": "_id",
          "type": "uint256"
        }
      ],
      "name": "Purchase",
      "type": "event"
    },
    {
      "anonymous": false,
      "inputs": [
        {
          "indexed": true,
          "internalType": "bytes32",
          "name": "role",
          "type": "bytes32"
        },
        {
          "indexed": true,
          "internalType": "bytes32",
          "name": "previousAdminRole",
          "type": "bytes32"
        },
        {
          "indexed": true,
          "internalType": "bytes32",
          "name": "newAdminRole",
          "type": "bytes32"
        }
      ],
      "name": "RoleAdminChanged",
      "type": "event"
    },
    {
      "anonymous": false,
      "inputs": [
        {
          "indexed": true,
          "internalType": "bytes32",
          "name": "role",
          "type": "bytes32"
        },
        {
          "indexed": true,
          "internalType": "address",
          "name": "account",
          "type": "address"
        },
        {
          "indexed": true,
          "internalType": "address",
          "name": "sender",
          "type": "address"
        }
      ],
      "name": "RoleGranted",
      "type": "event"
    },
    {
      "anonymous": false,
      "inputs": [
        {
          "indexed": true,
          "internalType": "bytes32",
          "name": "role",
          "type": "bytes32"
        },
        {
          "indexed": true,
          "internalType": "address",
          "name": "account",
          "type": "address"
        },
        {
          "indexed": true,
          "internalType": "address",
          "name": "sender",
          "type": "address"
        }
      ],
      "name": "RoleRevoked",
      "type": "event"
    },
    {
      "anonymous": false,
      "inputs": [
        {
          "indexed": false,
          "internalType": "address",
          "name": "_recipient",
          "type": "address"
        },
        {
          "indexed": false,
          "internalType": "uint256",
          "name": "_amount",
          "type": "uint256"
        }
      ],
      "name": "Withdraw",
      "type": "event"
    },
    {
      "inputs": [],
      "name": "DEFAULT_ADMIN_ROLE",
      "outputs": [
        {
          "internalType": "bytes32",
          "name": "",
          "type": "bytes32"
        }
      ],
      "stateMutability": "view",
      "type": "function"
    },
    {
      "inputs": [
        {
          "internalType": "address[]",
          "name": "_accounts",
          "type": "address[]"
        }
      ],
      "name": "addToWhitelist",
      "outputs": [],
      "stateMutability": "nonpayable",
      "type": "function"
    },
    {
      "inputs": [
        {
          "internalType": "address",
          "name": "",
          "type": "address"
        },
        {
          "internalType": "uint256",
          "name": "",
          "type": "uint256"
        }
      ],
      "name": "allIDSforUser",
      "outputs": [
        {
          "internalType": "uint256",
          "name": "",
          "type": "uint256"
        }
      ],
      "stateMutability": "view",
      "type": "function"
    },
    {
      "inputs": [
        {
          "internalType": "uint256",
          "name": "_tokenAmount",
          "type": "uint256"
        }
      ],
      "name": "buyToken",
      "outputs": [],
      "stateMutability": "payable",
      "type": "function"
    },
    {
      "inputs": [],
      "name": "cancelPhase",
      "outputs": [],
      "stateMutability": "nonpayable",
      "type": "function"
    },
    {
      "inputs": [
        {
          "internalType": "address",
          "name": "_dispatcher",
          "type": "address"
        }
      ],
      "name": "changeDispatcher",
      "outputs": [],
      "stateMutability": "nonpayable",
      "type": "function"
    },
    {
      "inputs": [
        {
          "internalType": "uint256",
          "name": "_newEndDate",
          "type": "uint256"
        }
      ],
      "name": "changeEndDate",
      "outputs": [],
      "stateMutability": "nonpayable",
      "type": "function"
    },
    {
      "inputs": [
        {
          "internalType": "bool",
          "name": "_isPublic",
          "type": "bool"
        },
        {
          "internalType": "uint256",
          "name": "_minimunEntry",
          "type": "uint256"
        },
        {
          "internalType": "uint256",
          "name": "_price",
          "type": "uint256"
        },
        {
          "internalType": "uint256",
          "name": "_endAt",
          "type": "uint256"
        },
        {
          "internalType": "uint256",
          "name": "_supply",
          "type": "uint256"
        },
        {
          "internalType": "uint256",
          "name": "_timeLock",
          "type": "uint256"
        }
      ],
      "name": "createPhase",
      "outputs": [],
      "stateMutability": "nonpayable",
      "type": "function"
    },
    {
      "inputs": [],
      "name": "currentPhase",
      "outputs": [
        {
          "internalType": "uint256",
          "name": "",
          "type": "uint256"
        }
      ],
      "stateMutability": "view",
      "type": "function"
    },
    {
      "inputs": [],
      "name": "dispatcher",
      "outputs": [
        {
          "internalType": "address",
          "name": "",
          "type": "address"
        }
      ],
      "stateMutability": "view",
      "type": "function"
    },
    {
      "inputs": [
        {
          "internalType": "address",
          "name": "_address",
          "type": "address"
        }
      ],
      "name": "getIDs",
      "outputs": [
        {
          "internalType": "uint256[]",
          "name": "",
          "type": "uint256[]"
        }
      ],
      "stateMutability": "view",
      "type": "function"
    },
    {
      "inputs": [],
      "name": "getLatestPrice",
      "outputs": [
        {
          "internalType": "uint256",
          "name": "",
          "type": "uint256"
        }
      ],
      "stateMutability": "view",
      "type": "function"
    },
    {
      "inputs": [
        {
          "internalType": "bytes32",
          "name": "role",
          "type": "bytes32"
        }
      ],
      "name": "getRoleAdmin",
      "outputs": [
        {
          "internalType": "bytes32",
          "name": "",
          "type": "bytes32"
        }
      ],
      "stateMutability": "view",
      "type": "function"
    },
    {
      "inputs": [],
      "name": "getcurrentPhase",
      "outputs": [
        {
          "components": [
            {
              "internalType": "bool",
              "name": "isPublic",
              "type": "bool"
            },
            {
              "internalType": "uint256",
              "name": "minimunEntry",
              "type": "uint256"
            },
            {
              "internalType": "uint256",
              "name": "price",
              "type": "uint256"
            },
            {
              "internalType": "uint256",
              "name": "endAt",
              "type": "uint256"
            },
            {
              "internalType": "uint256",
              "name": "supply",
              "type": "uint256"
            },
            {
              "internalType": "bool",
              "name": "over",
              "type": "bool"
            },
            {
              "internalType": "uint256",
              "name": "timelock",
              "type": "uint256"
            }
          ],
          "internalType": "struct Sale.Phase",
          "name": "",
          "type": "tuple"
        }
      ],
      "stateMutability": "view",
      "type": "function"
    },
    {
      "inputs": [
        {
          "internalType": "bytes32",
          "name": "role",
          "type": "bytes32"
        },
        {
          "internalType": "address",
          "name": "account",
          "type": "address"
        }
      ],
      "name": "grantRole",
      "outputs": [],
      "stateMutability": "nonpayable",
      "type": "function"
    },
    {
      "inputs": [
        {
          "internalType": "bytes32",
          "name": "role",
          "type": "bytes32"
        },
        {
          "internalType": "address",
          "name": "account",
          "type": "address"
        }
      ],
      "name": "hasRole",
      "outputs": [
        {
          "internalType": "bool",
          "name": "",
          "type": "bool"
        }
      ],
      "stateMutability": "view",
      "type": "function"
    },
    {
      "inputs": [],
      "name": "id",
      "outputs": [
        {
          "internalType": "uint256",
          "name": "",
          "type": "uint256"
        }
      ],
      "stateMutability": "view",
      "type": "function"
    },
    {
      "inputs": [
        {
          "internalType": "uint256",
          "name": "_maxSupply",
          "type": "uint256"
        },
        {
          "internalType": "address",
          "name": "_dispatcher",
          "type": "address"
        },
        {
          "internalType": "address",
          "name": "_tokenAddress",
          "type": "address"
        },
        {
          "internalType": "address",
          "name": "_chainLinkBNB_USD",
          "type": "address"
        }
      ],
      "name": "initialize",
      "outputs": [],
      "stateMutability": "nonpayable",
      "type": "function"
    },
    {
      "inputs": [
        {
          "internalType": "uint256",
          "name": "",
          "type": "uint256"
        }
      ],
      "name": "phases",
      "outputs": [
        {
          "internalType": "bool",
          "name": "isPublic",
          "type": "bool"
        },
        {
          "internalType": "uint256",
          "name": "minimunEntry",
          "type": "uint256"
        },
        {
          "internalType": "uint256",
          "name": "price",
          "type": "uint256"
        },
        {
          "internalType": "uint256",
          "name": "endAt",
          "type": "uint256"
        },
        {
          "internalType": "uint256",
          "name": "supply",
          "type": "uint256"
        },
        {
          "internalType": "bool",
          "name": "over",
          "type": "bool"
        },
        {
          "internalType": "uint256",
          "name": "timelock",
          "type": "uint256"
        }
      ],
      "stateMutability": "view",
      "type": "function"
    },
    {
      "inputs": [
        {
          "internalType": "uint256",
          "name": "_id",
          "type": "uint256"
        }
      ],
      "name": "release",
      "outputs": [],
      "stateMutability": "nonpayable",
      "type": "function"
    },
    {
      "inputs": [
        {
          "internalType": "address[]",
          "name": "_accounts",
          "type": "address[]"
        }
      ],
      "name": "removeWhitelistedAddress",
      "outputs": [],
      "stateMutability": "nonpayable",
      "type": "function"
    },
    {
      "inputs": [
        {
          "internalType": "bytes32",
          "name": "role",
          "type": "bytes32"
        },
        {
          "internalType": "address",
          "name": "account",
          "type": "address"
        }
      ],
      "name": "renounceRole",
      "outputs": [],
      "stateMutability": "nonpayable",
      "type": "function"
    },
    {
      "inputs": [
        {
          "internalType": "bytes32",
          "name": "role",
          "type": "bytes32"
        },
        {
          "internalType": "address",
          "name": "account",
          "type": "address"
        }
      ],
      "name": "revokeRole",
      "outputs": [],
      "stateMutability": "nonpayable",
      "type": "function"
    },
    {
      "inputs": [
        {
          "internalType": "address",
          "name": "_newChainlinkAddres",
          "type": "address"
        }
      ],
      "name": "setChainlinkAddress",
      "outputs": [],
      "stateMutability": "nonpayable",
      "type": "function"
    },
    {
      "inputs": [
        {
          "internalType": "uint256",
          "name": "_id",
          "type": "uint256"
        },
        {
          "internalType": "address",
          "name": "_myAddress",
          "type": "address"
        }
      ],
      "name": "showMyShops",
      "outputs": [
        {
          "internalType": "uint256",
          "name": "",
          "type": "uint256"
        },
        {
          "internalType": "uint256",
          "name": "",
          "type": "uint256"
        }
      ],
      "stateMutability": "view",
      "type": "function"
    },
    {
      "inputs": [
        {
          "internalType": "bytes4",
          "name": "interfaceId",
          "type": "bytes4"
        }
      ],
      "name": "supportsInterface",
      "outputs": [
        {
          "internalType": "bool",
          "name": "",
          "type": "bool"
        }
      ],
      "stateMutability": "view",
      "type": "function"
    },
    {
      "inputs": [],
      "name": "tokenAddress",
      "outputs": [
        {
          "internalType": "address",
          "name": "",
          "type": "address"
        }
      ],
      "stateMutability": "view",
      "type": "function"
    },
    {
      "inputs": [
        {
          "internalType": "uint256",
          "name": "",
          "type": "uint256"
        }
      ],
      "name": "tokenLocksForSale",
      "outputs": [
        {
          "internalType": "contract TokenTimelock",
          "name": "",
          "type": "address"
        }
      ],
      "stateMutability": "view",
      "type": "function"
    },
    {
      "inputs": [],
      "name": "tokensRemainForSale",
      "outputs": [
        {
          "internalType": "uint256",
          "name": "",
          "type": "uint256"
        }
      ],
      "stateMutability": "view",
      "type": "function"
    },
    {
      "inputs": [
        {
          "internalType": "address",
          "name": "_account",
          "type": "address"
        },
        {
          "internalType": "uint256",
          "name": "_amount",
          "type": "uint256"
        }
      ],
      "name": "withdraw",
      "outputs": [],
      "stateMutability": "nonpayable",
      "type": "function"
    },
    {
      "stateMutability": "payable",
      "type": "receive"
    }
  ],
  "transactionHash": "0xb2fca5a185ddd36ed44452eacfd50b8ed1ac857aa5d1bb1cdf6e534ba77557fe",
  "args": [],
  "solcInputHash": "c1c650ea0245958c9fe480b5cf7399ab",
  "bytecode": "0x608060405234801561001057600080fd5b50612f32806100206000396000f3fe608060405260043610620001f75760003560e01c8063754d1d54116200010b578063a217fddf11620000a1578063cb7e9057116200006c578063cb7e905714620006a5578063d547741f14620006c7578063f3fef3a314620006ec578063f8185702146200071157600080fd5b8063a217fddf14620005c8578063af640d0f14620005df578063b4696af214620005f7578063bb543f5f146200063257600080fd5b80638e15f47311620000e25780638e15f473146200055157806391d1485414620005695780639d76ea58146200058e5780639def891014620005b057600080fd5b8063754d1d5414620004b45780637f64978314620004d95780637f811d4f14620004fe57600080fd5b80632d296bf1116200018d57806337bdc99b116200015857806337bdc99b1462000420578063396f8f4414620004455780634126eec1146200046a57806345737b1e146200048f57600080fd5b80632d296bf114620003225780632e37eef614620003395780632f2ff15d14620003d657806336568abe14620003fb57600080fd5b80630a33c90a11620001ce5780630a33c90a146200028a5780630f25941a14620002b1578063133e3be814620002c9578063248a9ca314620002ee57600080fd5b806301ffc9a71462000204578063044b3704146200023e578063055ad42e146200027257600080fd5b36620001ff57005b600080fd5b3480156200021157600080fd5b5062000229620002233660046200236a565b62000745565b60405190151581526020015b60405180910390f35b3480156200024b57600080fd5b50620002636200025d366004620021a5565b6200077d565b60405190815260200162000235565b3480156200027f57600080fd5b506200026360ce5481565b3480156200029757600080fd5b50620002af620002a936600462002165565b620007af565b005b348015620002be57600080fd5b50620002af62000814565b348015620002d657600080fd5b50620002af620002e836600462002165565b62000996565b348015620002fb57600080fd5b50620002636200030d3660046200231d565b60009081526065602052604090206001015490565b620002af620003333660046200231d565b620009c7565b3480156200034657600080fd5b506200039c620003583660046200231d565b60ca60205260009081526040902080546001820154600283015460038401546004850154600586015460069096015460ff9586169694959394929391929091169087565b60408051971515885260208801969096529486019390935260608501919091526080840152151560a083015260c082015260e00162000235565b348015620003e357600080fd5b50620002af620003f536600462002337565b62000f2a565b3480156200040857600080fd5b50620002af6200041a36600462002337565b62000f59565b3480156200042d57600080fd5b50620002af6200043f3660046200231d565b62000fdb565b3480156200045257600080fd5b50620002af62000464366004620021d4565b6200115c565b3480156200047757600080fd5b50620002af62000489366004620022ce565b620011d9565b3480156200049c57600080fd5b50620002af620004ae3660046200231d565b62001661565b348015620004c157600080fd5b50620002af620004d3366004620023b0565b62001694565b348015620004e657600080fd5b50620002af620004f8366004620021d4565b6200179d565b3480156200050b57600080fd5b50620005386200051d3660046200231d565b60cd602052600090815260409020546001600160a01b031681565b6040516001600160a01b03909116815260200162000235565b3480156200055e57600080fd5b50620002636200181a565b3480156200057657600080fd5b50620002296200058836600462002337565b620018c6565b3480156200059b57600080fd5b5060d25462000538906001600160a01b031681565b348015620005bd57600080fd5b506200026360d05481565b348015620005d557600080fd5b5062000263600081565b348015620005ec57600080fd5b506200026360cf5481565b3480156200060457600080fd5b506200061c6200061636600462002337565b620018f1565b6040805192835260208301919091520162000235565b3480156200063f57600080fd5b506200064a62001ac1565b604051620002359190600060e0820190508251151582526020830151602083015260408301516040830152606083015160608301526080830151608083015260a0830151151560a083015260c083015160c083015292915050565b348015620006b257600080fd5b5060d15462000538906001600160a01b031681565b348015620006d457600080fd5b50620002af620006e636600462002337565b62001b76565b348015620006f957600080fd5b50620002af6200070b366004620021a5565b62001ba0565b3480156200071e57600080fd5b50620007366200073036600462002165565b62001c8c565b604051620002359190620024d8565b60006001600160e01b03198216637965db0b60e01b14806200077757506301ffc9a760e01b6001600160e01b03198316145b92915050565b60cb60205281600052604060002081815481106200079a57600080fd5b90600052602060002001600091509150505481565b6000620007bd813362001cfa565b6040516001600160a01b038316907f92b885c3da6a6d52c13130f8dcaa55efff1188d78078bd0aac02fc01ed493faf90600090a25060d180546001600160a01b0319166001600160a01b0392909216919091179055565b600062000822813362001cfa565b60ce54600090815260ca602052604090206005015460ff1615620008635760405162461bcd60e51b81526004016200085a9062002553565b60405180910390fd5b60ce54600090815260ca6020526040902060040154156200093c5760d25460d15460ce54600090815260ca602052604090819020600490810154915163a9059cbb60e01b81526001600160a01b0393841691810191909152602481019190915291169063a9059cbb90604401602060405180830381600087803b158015620008ea57600080fd5b505af1158015620008ff573d6000803e3d6000fd5b505050506040513d601f19601f82011682018060405250810190620009259190620022ae565b5060ce54600090815260ca60205260408120600401555b60ce54600090815260ca6020908152604091829020600501805460ff1916600190811790915591519182527f0773b1bc4292ec2db340bde1f65478f936986eaca8deee2c306b42c31c27f4ad91015b60405180910390a150565b6000620009a4813362001cfa565b5060c980546001600160a01b0319166001600160a01b0392909216919091179055565b60ce54600090815260ca602052604090205460ff1662000a3a5733600090815260cc602052604090205460ff1662000a3a5760405162461bcd60e51b815260206004820152601560248201527454686973207068617365206973207072697661746560581b60448201526064016200085a565b6002609754141562000a8f5760405162461bcd60e51b815260206004820152601f60248201527f5265656e7472616e637947756172643a207265656e7472616e742063616c6c0060448201526064016200085a565b600260975560ce54600090815260ca6020526040902060030154421062000aca5760405162461bcd60e51b81526004016200085a9062002553565b60ce54600090815260ca602052604090206004015481111562000b245760405162461bcd60e51b81526020600482015260116024820152704e6f7420656e6f75676820737570706c7960781b60448201526064016200085a565b60ce54600090815260ca602052604090206001015481101562000b8a5760405162461bcd60e51b815260206004820152601860248201527f54686572652061726520746f6f2066657720746f6b656e73000000000000000060448201526064016200085a565b600062000b966200181a565b60ce54600090815260ca602052604090206002015462000bb7908462002624565b62000bc3919062002601565b90503481111562000c0c5760405162461bcd60e51b81526020600482015260126024820152712737ba1032b737bab3b41022aa2417a1272160711b60448201526064016200085a565b60cf805490600062000c1e83620026ad565b909155505060ce54600090815260ca60205260409020600601541562000d9d5760d25460ce54600090815260ca602052604081206006015490916001600160a01b031690339062000c709042620025e6565b60405162000c7e906200212a565b6001600160a01b0393841681529290911660208301526040820152606001604051809103906000f08015801562000cb9573d6000803e3d6000fd5b5060d25460405163a9059cbb60e01b81526001600160a01b0380841660048301526024820187905292935091169063a9059cbb90604401602060405180830381600087803b15801562000d0b57600080fd5b505af115801562000d20573d6000803e3d6000fd5b505050506040513d601f19601f8201168201806040525081019062000d469190620022ae565b5060cf8054600090815260cd6020908152604080832080546001600160a01b0319166001600160a01b03969096169590951790945533825260cb815292812091548254600181018455928252929020015562000e27565b60d25460405163a9059cbb60e01b8152336004820152602481018490526001600160a01b039091169063a9059cbb90604401602060405180830381600087803b15801562000dea57600080fd5b505af115801562000dff573d6000803e3d6000fd5b505050506040513d601f19601f8201168201806040525081019062000e259190620022ae565b505b60ce54600090815260ca60205260408120600401805484929062000e4d90849062002646565b909155505060ce54600090815260ca602052604090206004015462000ec35760ce54600090815260ca6020908152604091829020600501805460ff1916600190811790915591519182527f0773b1bc4292ec2db340bde1f65478f936986eaca8deee2c306b42c31c27f4ad910160405180910390a15b8160d0600082825462000ed7919062002646565b909155505060cf5460405133917f12cb4648cf3058b17ceeb33e579f8b0bc269fe0843f3900b8e24b6c54871703c9162000f1991868252602082015260400190565b60405180910390a250506001609755565b60008281526065602052604090206001015462000f48813362001cfa565b62000f54838362001d69565b505050565b6001600160a01b038116331462000fcb5760405162461bcd60e51b815260206004820152602f60248201527f416363657373436f6e74726f6c3a2063616e206f6e6c792072656e6f756e636560448201526e103937b632b9903337b91039b2b63360891b60648201526084016200085a565b62000fd7828262001df3565b5050565b600081815260cd60209081526040918290205482516338af3eed60e01b815292516001600160a01b03909116926338af3eed926004808301939192829003018186803b1580156200102b57600080fd5b505afa15801562001040573d6000803e3d6000fd5b505050506040513d601f19601f8201168201806040525081019062001066919062002185565b6001600160a01b0316336001600160a01b031614620010be5760405162461bcd60e51b8152602060048201526013602482015272151a1a5cc81a5cc81b9bdd081e5bdd5c881a59606a1b60448201526064016200085a565b600081815260cd60205260408082205481516386d1a69f60e01b815291516001600160a01b03909116926386d1a69f926004808201939182900301818387803b1580156200110b57600080fd5b505af115801562001120573d6000803e3d6000fd5b505060408051338152602081018590527fc88fae5b8386808973dd739aabbcdc7b9a247773ca88a1338c13730eadcf198a93500190506200098b565b60006200116a813362001cfa565b60005b825181101562000f5457600060cc6000858481518110620011925762001192620026e1565b6020908102919091018101516001600160a01b03168252810191909152604001600020805460ff191691151591909117905580620011d081620026ad565b9150506200116d565b6000620011e7813362001cfa565b60ce54600090815260ca6020526040902060030154421115620012245760ce54600090815260ca60205260409020600501805460ff191660011790555b60ce54600090815260ca602052604090206005015460ff16620012825760405162461bcd60e51b81526020600482015260156024820152742a3434b990383430b9b29034b9b713ba1037bb32b960591b60448201526064016200085a565b60ce54600090815260ca602052604090206004015415620013465760d25460d15460ce54600090815260ca602052604090819020600490810154915163a9059cbb60e01b81526001600160a01b0393841691810191909152602481019190915291169063a9059cbb90604401602060405180830381600087803b1580156200130957600080fd5b505af11580156200131e573d6000803e3d6000fd5b505050506040513d601f19601f82011682018060405250810190620013449190620022ae565b505b834210620013af5760405162461bcd60e51b815260206004820152602f60248201527f54686520656e64206f66207468652070686173652073686f756c64206265206760448201526e726561746572207468616e206e6f7760881b60648201526084016200085a565b858311620014145760405162461bcd60e51b815260206004820152602b60248201527f537570706c792073686f756c642062652067726561746572207468616e206d6960448201526a6e696d756d20656e74727960a81b60648201526084016200085a565b8260d0541015620014685760405162461bcd60e51b815260206004820152601960248201527f4e6f7420656e6f75676820737570706c7920746f206d696e740000000000000060448201526064016200085a565b60d25460d1546040516323b872dd60e01b81526001600160a01b039182166004820152306024820152604481018690529116906323b872dd90606401602060405180830381600087803b158015620014bf57600080fd5b505af1158015620014d4573d6000803e3d6000fd5b505050506040513d601f19601f82011682018060405250810190620014fa9190620022ae565b620015605760405162461bcd60e51b815260206004820152602f60248201527f54686520746f6b656e20636f756c64206e6f74206265207472616e736665727260448201526e656420746f2074686520706861736560881b60648201526084016200085a565b60ce80549060006200157283620026ad565b90915550506040805160e08101825288151580825260208083018a81528385018a815260608086018b815260808088018c8152600060a0808b0182815260c08c018f815260ce54845260ca8b52928d90208c51815490151560ff199182161782559951600182015597516002890155945160038801559151600487015592516005860180549115159190971617909555905160069093019290925586519485529284018c90529483018a905290820188905292810186905290917f2c7a4025fb199a8e49e83cadca2da4279693578a6b956b58f359c7c94b1ab082910160405180910390a15050505050505050565b60006200166f813362001cfa565b8142106200167c57600080fd5b5060ce54600090815260ca6020526040902060030155565b600054610100900460ff1680620016ae575060005460ff16155b620016cd5760405162461bcd60e51b81526004016200085a9062002598565b600054610100900460ff16158015620016f0576000805461ffff19166101011790555b620016fa62001e5d565b6200170760003362001eed565b60c980546001600160a01b038085166001600160a01b031992831617909255600060ce81905560d088905560d1805488851690841617905560d2805493871693909216929092179055805260ca6020527f992e0e3e7050db88ec37ec33505f46a9813ea5551fe17ef58dc201344bcbaf98805460ff19166001179055801562001796576000805461ff00191690555b5050505050565b6000620017ab813362001cfa565b60005b825181101562000f5457600160cc6000858481518110620017d357620017d3620026e1565b6020908102919091018101516001600160a01b03168252810191909152604001600020805460ff1916911515919091179055806200181181620026ad565b915050620017ae565b60008060c960009054906101000a90046001600160a01b03166001600160a01b031663feaf968c6040518163ffffffff1660e01b815260040160a06040518083038186803b1580156200186c57600080fd5b505afa15801562001881573d6000803e3d6000fd5b505050506040513d601f19601f82011682018060405250810190620018a791906200240a565b505050915050806402540be400620018c0919062002624565b91505090565b60009182526065602090815260408084206001600160a01b0393909316845291905290205460ff1690565b600082815260cd602090815260408083205481516338af3eed60e01b8152915184936001600160a01b03909216926338af3eed926004808301939192829003018186803b1580156200194257600080fd5b505afa15801562001957573d6000803e3d6000fd5b505050506040513d601f19601f820116820180604052508101906200197d919062002185565b6001600160a01b0316836001600160a01b0316146200199b57600080fd5b600084815260cd602090815260409182902054825163b91d400160e01b815292516001600160a01b039091169263b91d4001926004808301939192829003018186803b158015620019eb57600080fd5b505afa15801562001a00573d6000803e3d6000fd5b505050506040513d601f19601f8201168201806040525081019062001a26919062002396565b60d254600086815260cd6020526040908190205490516370a0823160e01b81526001600160a01b0391821660048201529116906370a082319060240160206040518083038186803b15801562001a7b57600080fd5b505afa15801562001a90573d6000803e3d6000fd5b505050506040513d601f19601f8201168201806040525081019062001ab6919062002396565b915091509250929050565b62001b066040518060e0016040528060001515815260200160008152602001600081526020016000815260200160008152602001600015158152602001600081525090565b5060ce54600090815260ca6020908152604091829020825160e081018452815460ff9081161515825260018301549382019390935260028201549381019390935260038101546060840152600481015460808401526005810154909116151560a08301526006015460c082015290565b60008281526065602052604090206001015462001b94813362001cfa565b62000f54838362001df3565b600062001bae813362001cfa565b6002609754141562001c035760405162461bcd60e51b815260206004820152601f60248201527f5265656e7472616e637947756172643a207265656e7472616e742063616c6c0060448201526064016200085a565b60026097556040516001600160a01b0384169083156108fc029084906000818181858888f1935050505015801562001c3f573d6000803e3d6000fd5b50604080516001600160a01b0385168152602081018490527f884edad9ce6fa2440d8a54cc123490eb96d2768479d49ff9c7366125a9424364910160405180910390a15050600160975550565b6001600160a01b038116600090815260cb602090815260409182902080548351818402810184019094528084526060939283018282801562001cee57602002820191906000526020600020905b81548152602001906001019080831162001cd9575b50505050509050919050565b62001d068282620018c6565b62000fd75762001d21816001600160a01b0316601462001ef9565b62001d2e83602062001ef9565b60405160200162001d419291906200245f565b60408051601f198184030181529082905262461bcd60e51b82526200085a916004016200251e565b62001d758282620018c6565b62000fd75760008281526065602090815260408083206001600160a01b03851684529091529020805460ff1916600117905562001daf3390565b6001600160a01b0316816001600160a01b0316837f2f8788117e7eff1d82e926ec794901d17c78024a50270940304540a733656f0d60405160405180910390a45050565b62001dff8282620018c6565b1562000fd75760008281526065602090815260408083206001600160a01b0385168085529252808320805460ff1916905551339285917ff6391f5c32d9c69d2a47ea670b442974b53935d1edc7fd64eb21e047a839171b9190a45050565b600054610100900460ff168062001e77575060005460ff16155b62001e965760405162461bcd60e51b81526004016200085a9062002598565b600054610100900460ff1615801562001eb9576000805461ffff19166101011790555b62001ec3620020ba565b62001ecd620020ba565b62001ed7620020ba565b801562001eea576000805461ff00191690555b50565b62000fd7828262001d69565b6060600062001f0a83600262002624565b62001f17906002620025e6565b67ffffffffffffffff81111562001f325762001f32620026f7565b6040519080825280601f01601f19166020018201604052801562001f5d576020820181803683370190505b509050600360fc1b8160008151811062001f7b5762001f7b620026e1565b60200101906001600160f81b031916908160001a905350600f60fb1b8160018151811062001fad5762001fad620026e1565b60200101906001600160f81b031916908160001a905350600062001fd384600262002624565b62001fe0906001620025e6565b90505b600181111562002062576f181899199a1a9b1b9c1cb0b131b232b360811b85600f1660108110620020185762002018620026e1565b1a60f81b828281518110620020315762002031620026e1565b60200101906001600160f81b031916908160001a90535060049490941c936200205a8162002693565b905062001fe3565b508315620020b35760405162461bcd60e51b815260206004820181905260248201527f537472696e67733a20686578206c656e67746820696e73756666696369656e7460448201526064016200085a565b9392505050565b600054610100900460ff1680620020d4575060005460ff16155b620020f35760405162461bcd60e51b81526004016200085a9062002598565b600054610100900460ff1615801562001ed7576000805461ffff1916610101179055801562001eea576000805461ff001916905550565b6107ca806200273383390190565b803562002145816200270d565b919050565b805169ffffffffffffffffffff811681146200214557600080fd5b6000602082840312156200217857600080fd5b8135620020b3816200270d565b6000602082840312156200219857600080fd5b8151620020b3816200270d565b60008060408385031215620021b957600080fd5b8235620021c6816200270d565b946020939093013593505050565b60006020808385031215620021e857600080fd5b823567ffffffffffffffff808211156200220157600080fd5b818501915085601f8301126200221657600080fd5b8135818111156200222b576200222b620026f7565b8060051b604051601f19603f83011681018181108582111715620022535762002253620026f7565b604052828152858101935084860182860187018a10156200227357600080fd5b600095505b83861015620022a1576200228c8162002138565b85526001959095019493860193860162002278565b5098975050505050505050565b600060208284031215620022c157600080fd5b8151620020b38162002723565b60008060008060008060c08789031215620022e857600080fd5b8635620022f58162002723565b9860208801359850604088013597606081013597506080810135965060a00135945092505050565b6000602082840312156200233057600080fd5b5035919050565b600080604083850312156200234b57600080fd5b8235915060208301356200235f816200270d565b809150509250929050565b6000602082840312156200237d57600080fd5b81356001600160e01b031981168114620020b357600080fd5b600060208284031215620023a957600080fd5b5051919050565b60008060008060808587031215620023c757600080fd5b843593506020850135620023db816200270d565b92506040850135620023ed816200270d565b91506060850135620023ff816200270d565b939692955090935050565b600080600080600060a086880312156200242357600080fd5b6200242e866200214a565b945060208601519350604086015192506060860151915062002453608087016200214a565b90509295509295909350565b7f416363657373436f6e74726f6c3a206163636f756e74200000000000000000008152600083516200249981601785016020880162002660565b7001034b99036b4b9b9b4b733903937b6329607d1b6017918401918201528351620024cc81602884016020880162002660565b01602801949350505050565b6020808252825182820181905260009190848201906040850190845b818110156200251257835183529284019291840191600101620024f4565b50909695505050505050565b60208152600082518060208401526200253f81604085016020870162002660565b601f01601f19169190910160400192915050565b60208082526025908201527f54686973207068617365206973206f7665722c207761697420666f7220746865604082015264081b995e1d60da1b606082015260800190565b6020808252602e908201527f496e697469616c697a61626c653a20636f6e747261637420697320616c72656160408201526d191e481a5b9a5d1a585b1a5e995960921b606082015260800190565b60008219821115620025fc57620025fc620026cb565b500190565b6000826200261f57634e487b7160e01b600052601260045260246000fd5b500490565b6000816000190483118215151615620026415762002641620026cb565b500290565b6000828210156200265b576200265b620026cb565b500390565b60005b838110156200267d57818101518382015260200162002663565b838111156200268d576000848401525b50505050565b600081620026a557620026a5620026cb565b506000190190565b6000600019821415620026c457620026c4620026cb565b5060010190565b634e487b7160e01b600052601160045260246000fd5b634e487b7160e01b600052603260045260246000fd5b634e487b7160e01b600052604160045260246000fd5b6001600160a01b038116811462001eea57600080fd5b801515811462001eea57600080fdfe60e060405234801561001057600080fd5b506040516107ca3803806107ca83398101604081905261002f916100c0565b42811161009d5760405162461bcd60e51b815260206004820152603260248201527f546f6b656e54696d656c6f636b3a2072656c656173652074696d65206973206260448201527165666f72652063757272656e742074696d6560701b606482015260840160405180910390fd5b6001600160601b0319606093841b81166080529190921b1660a05260c05261011b565b6000806000606084860312156100d557600080fd5b83516100e081610103565b60208501519093506100f181610103565b80925050604084015190509250925092565b6001600160a01b038116811461011857600080fd5b50565b60805160601c60a05160601c60c05161066261016860003960008181609f015260f0015260008181605301526102a701526000818160ca01528181610182015261028501526106626000f3fe608060405234801561001057600080fd5b506004361061004c5760003560e01c806338af3eed1461005157806386d1a69f14610090578063b91d40011461009a578063fc0c546a146100c8575b600080fd5b7f00000000000000000000000000000000000000000000000000000000000000005b6040516001600160a01b0390911681526020015b60405180910390f35b6100986100ee565b005b6040517f00000000000000000000000000000000000000000000000000000000000000008152602001610087565b7f0000000000000000000000000000000000000000000000000000000000000000610073565b7f000000000000000000000000000000000000000000000000000000000000000042101561017e5760405162461bcd60e51b815260206004820152603260248201527f546f6b656e54696d656c6f636b3a2063757272656e742074696d65206973206260448201527165666f72652072656c656173652074696d6560701b60648201526084015b60405180910390fd5b60007f00000000000000000000000000000000000000000000000000000000000000006040516370a0823160e01b81523060048201526001600160a01b0391909116906370a082319060240160206040518083038186803b1580156101e257600080fd5b505afa1580156101f6573d6000803e3d6000fd5b505050506040513d601f19601f8201168201806040525081019061021a9190610594565b9050600081116102785760405162461bcd60e51b815260206004820152602360248201527f546f6b656e54696d656c6f636b3a206e6f20746f6b656e7320746f2072656c6560448201526261736560e81b6064820152608401610175565b6102cc6001600160a01b037f0000000000000000000000000000000000000000000000000000000000000000167f0000000000000000000000000000000000000000000000000000000000000000836102cf565b50565b604080516001600160a01b038416602482015260448082018490528251808303909101815260649091019091526020810180516001600160e01b031663a9059cbb60e01b179052610321908490610326565b505050565b600061037b826040518060400160405280602081526020017f5361666545524332303a206c6f772d6c6576656c2063616c6c206661696c6564815250856001600160a01b03166103f89092919063ffffffff16565b80519091501561032157808060200190518101906103999190610572565b6103215760405162461bcd60e51b815260206004820152602a60248201527f5361666545524332303a204552433230206f7065726174696f6e20646964206e6044820152691bdd081cdd58d8d9595960b21b6064820152608401610175565b60606104078484600085610411565b90505b9392505050565b6060824710156104725760405162461bcd60e51b815260206004820152602660248201527f416464726573733a20696e73756666696369656e742062616c616e636520666f6044820152651c8818d85b1b60d21b6064820152608401610175565b843b6104c05760405162461bcd60e51b815260206004820152601d60248201527f416464726573733a2063616c6c20746f206e6f6e2d636f6e74726163740000006044820152606401610175565b600080866001600160a01b031685876040516104dc91906105ad565b60006040518083038185875af1925050503d8060008114610519576040519150601f19603f3d011682016040523d82523d6000602084013e61051e565b606091505b509150915061052e828286610539565b979650505050505050565b6060831561054857508161040a565b8251156105585782518084602001fd5b8160405162461bcd60e51b815260040161017591906105c9565b60006020828403121561058457600080fd5b8151801515811461040a57600080fd5b6000602082840312156105a657600080fd5b5051919050565b600082516105bf8184602087016105fc565b9190910192915050565b60208152600082518060208401526105e88160408501602087016105fc565b601f01601f19169190910160400192915050565b60005b838110156106175781810151838201526020016105ff565b83811115610626576000848401525b5050505056fea2646970667358221220664d86cdc78e3fa565a9a9d1bc53f73ee0f5c526b8c0339004fbe96019fe66e264736f6c63430008070033a26469706673582212208eb6bb2b71815bdef582ef1bd201e8af46559135c062a9d5291ab4c2381bfa0964736f6c63430008070033",
  "devdoc": {
    "author": "crisolita",
    "kind": "dev",
    "methods": {
      "changeEndDate(uint256)": {
        "details": "change the end date's phase"
      },
      "getIDs(address)": {
        "details": "see the tokens lock and id for every user"
      },
      "getLatestPrice()": {
        "details": "get the usd/BNB price"
      },
      "getRoleAdmin(bytes32)": {
        "details": "Returns the admin role that controls `role`. See {grantRole} and {revokeRole}. To change a role's admin, use {_setRoleAdmin}."
      },
      "grantRole(bytes32,address)": {
        "details": "Grants `role` to `account`. If `account` had not been already granted `role`, emits a {RoleGranted} event. Requirements: - the caller must have ``role``'s admin role."
      },
      "hasRole(bytes32,address)": {
        "details": "Returns `true` if `account` has been granted `role`."
      },
      "renounceRole(bytes32,address)": {
        "details": "Revokes `role` from the calling account. Roles are often managed via {grantRole} and {revokeRole}: this function's purpose is to provide a mechanism for accounts to lose their privileges if they are compromised (such as when a trusted device is misplaced). If the calling account had been granted `role`, emits a {RoleRevoked} event. Requirements: - the caller must be `account`."
      },
      "revokeRole(bytes32,address)": {
        "details": "Revokes `role` from `account`. If `account` had been granted `role`, emits a {RoleRevoked} event. Requirements: - the caller must have ``role``'s admin role."
      },
      "supportsInterface(bytes4)": {
        "details": "See {IERC165-supportsInterface}."
      }
    },
    "title": "Sale",
    "version": 1
  },
  "userdoc": {
    "events": {
      "DispatcherChange(address)": {
        "notice": "records the changes of the wallet where the tokens are transferred"
      },
      "PhaseCreated(bool,uint256,uint256,uint256,uint256)": {
        "notice": "records creation  of phases"
      },
      "Purchase(address,uint256,uint256)": {
        "notice": "records the token transfers made by the contract"
      }
    },
    "kind": "user",
    "methods": {
      "allIDSforUser(address,uint256)": {
        "notice": "record the ids for users"
      },
      "buyToken(uint256)": {
        "notice": "mint tokens, require send ETH/BNB"
      },
      "changeDispatcher(address)": {
        "notice": "change account to transfer the contract balance"
      },
      "createPhase(bool,uint256,uint256,uint256,uint256,uint256)": {
        "notice": "add a phase to mapping"
      },
      "currentPhase()": {
        "notice": "reference for the mapping of phases, uint of the current phase"
      },
      "dispatcher()": {
        "notice": "wallet to transfer funds of the contract"
      },
      "getcurrentPhase()": {
        "notice": "get ongoing phase or the last phase over"
      },
      "phases(uint256)": {
        "notice": "all phases (next, current and previous)"
      },
      "setChainlinkAddress(address)": {
        "notice": "set chainlink address"
      },
      "tokenAddress()": {
        "notice": "address the token that user buys"
      },
      "tokensRemainForSale()": {
        "notice": "current amount of tokens"
      },
      "withdraw(address,uint256)": {
        "notice": "withdraw eth"
      }
    },
    "notice": "this contract allow create phases for mint token and transfer the funds",
    "version": 1
  },
  "storageLayout": {
    "storage": [
      {
        "astId": 459,
        "contract": "contracts/Sale.sol:Sale",
        "label": "_initialized",
        "offset": 0,
        "slot": "0",
        "type": "t_bool"
      },
      {
        "astId": 462,
        "contract": "contracts/Sale.sol:Sale",
        "label": "_initializing",
        "offset": 1,
        "slot": "0",
        "type": "t_bool"
      },
      {
        "astId": 1276,
        "contract": "contracts/Sale.sol:Sale",
        "label": "__gap",
        "offset": 0,
        "slot": "1",
        "type": "t_array(t_uint256)50_storage"
      },
      {
        "astId": 1525,
        "contract": "contracts/Sale.sol:Sale",
        "label": "__gap",
        "offset": 0,
        "slot": "51",
        "type": "t_array(t_uint256)50_storage"
      },
      {
        "astId": 94,
        "contract": "contracts/Sale.sol:Sale",
        "label": "_roles",
        "offset": 0,
        "slot": "101",
        "type": "t_mapping(t_bytes32,t_struct(RoleData)89_storage)"
      },
      {
        "astId": 379,
        "contract": "contracts/Sale.sol:Sale",
        "label": "__gap",
        "offset": 0,
        "slot": "102",
        "type": "t_array(t_uint256)49_storage"
      },
      {
        "astId": 513,
        "contract": "contracts/Sale.sol:Sale",
        "label": "_status",
        "offset": 0,
        "slot": "151",
        "type": "t_uint256"
      },
      {
        "astId": 556,
        "contract": "contracts/Sale.sol:Sale",
        "label": "__gap",
        "offset": 0,
        "slot": "152",
        "type": "t_array(t_uint256)49_storage"
      },
      {
        "astId": 5026,
        "contract": "contracts/Sale.sol:Sale",
        "label": "priceFeed",
        "offset": 0,
        "slot": "201",
        "type": "t_contract(AggregatorV3Interface)45"
      },
      {
        "astId": 5032,
        "contract": "contracts/Sale.sol:Sale",
        "label": "phases",
        "offset": 0,
        "slot": "202",
        "type": "t_mapping(t_uint256,t_struct(Phase)5023_storage)"
      },
      {
        "astId": 5038,
        "contract": "contracts/Sale.sol:Sale",
        "label": "allIDSforUser",
        "offset": 0,
        "slot": "203",
        "type": "t_mapping(t_address,t_array(t_uint256)dyn_storage)"
      },
      {
        "astId": 5042,
        "contract": "contracts/Sale.sol:Sale",
        "label": "whitelist",
        "offset": 0,
        "slot": "204",
        "type": "t_mapping(t_address,t_bool)"
      },
      {
        "astId": 5047,
        "contract": "contracts/Sale.sol:Sale",
        "label": "tokenLocksForSale",
        "offset": 0,
        "slot": "205",
        "type": "t_mapping(t_uint256,t_contract(TokenTimelock)3521)"
      },
      {
        "astId": 5050,
        "contract": "contracts/Sale.sol:Sale",
        "label": "currentPhase",
        "offset": 0,
        "slot": "206",
        "type": "t_uint256"
      },
      {
        "astId": 5052,
        "contract": "contracts/Sale.sol:Sale",
        "label": "id",
        "offset": 0,
        "slot": "207",
        "type": "t_uint256"
      },
      {
        "astId": 5055,
        "contract": "contracts/Sale.sol:Sale",
        "label": "tokensRemainForSale",
        "offset": 0,
        "slot": "208",
        "type": "t_uint256"
      },
      {
        "astId": 5058,
        "contract": "contracts/Sale.sol:Sale",
        "label": "dispatcher",
        "offset": 0,
        "slot": "209",
        "type": "t_address"
      },
      {
        "astId": 5061,
        "contract": "contracts/Sale.sol:Sale",
        "label": "tokenAddress",
        "offset": 0,
        "slot": "210",
        "type": "t_address"
      }
    ],
    "types": {
      "t_address": {
        "encoding": "inplace",
        "label": "address",
        "numberOfBytes": "20"
      },
      "t_array(t_uint256)49_storage": {
        "base": "t_uint256",
        "encoding": "inplace",
        "label": "uint256[49]",
        "numberOfBytes": "1568"
      },
      "t_array(t_uint256)50_storage": {
        "base": "t_uint256",
        "encoding": "inplace",
        "label": "uint256[50]",
        "numberOfBytes": "1600"
      },
      "t_array(t_uint256)dyn_storage": {
        "base": "t_uint256",
        "encoding": "dynamic_array",
        "label": "uint256[]",
        "numberOfBytes": "32"
      },
      "t_bool": {
        "encoding": "inplace",
        "label": "bool",
        "numberOfBytes": "1"
      },
      "t_bytes32": {
        "encoding": "inplace",
        "label": "bytes32",
        "numberOfBytes": "32"
      },
      "t_contract(AggregatorV3Interface)45": {
        "encoding": "inplace",
        "label": "contract AggregatorV3Interface",
        "numberOfBytes": "20"
      },
      "t_contract(TokenTimelock)3521": {
        "encoding": "inplace",
        "label": "contract TokenTimelock",
        "numberOfBytes": "20"
      },
      "t_mapping(t_address,t_array(t_uint256)dyn_storage)": {
        "encoding": "mapping",
        "key": "t_address",
        "label": "mapping(address => uint256[])",
        "numberOfBytes": "32",
        "value": "t_array(t_uint256)dyn_storage"
      },
      "t_mapping(t_address,t_bool)": {
        "encoding": "mapping",
        "key": "t_address",
        "label": "mapping(address => bool)",
        "numberOfBytes": "32",
        "value": "t_bool"
      },
      "t_mapping(t_bytes32,t_struct(RoleData)89_storage)": {
        "encoding": "mapping",
        "key": "t_bytes32",
        "label": "mapping(bytes32 => struct AccessControlUpgradeable.RoleData)",
        "numberOfBytes": "32",
        "value": "t_struct(RoleData)89_storage"
      },
      "t_mapping(t_uint256,t_contract(TokenTimelock)3521)": {
        "encoding": "mapping",
        "key": "t_uint256",
        "label": "mapping(uint256 => contract TokenTimelock)",
        "numberOfBytes": "32",
        "value": "t_contract(TokenTimelock)3521"
      },
      "t_mapping(t_uint256,t_struct(Phase)5023_storage)": {
        "encoding": "mapping",
        "key": "t_uint256",
        "label": "mapping(uint256 => struct Sale.Phase)",
        "numberOfBytes": "32",
        "value": "t_struct(Phase)5023_storage"
      },
      "t_struct(Phase)5023_storage": {
        "encoding": "inplace",
        "label": "struct Sale.Phase",
        "members": [
          {
            "astId": 5010,
            "contract": "contracts/Sale.sol:Sale",
            "label": "isPublic",
            "offset": 0,
            "slot": "0",
            "type": "t_bool"
          },
          {
            "astId": 5012,
            "contract": "contracts/Sale.sol:Sale",
            "label": "minimunEntry",
            "offset": 0,
            "slot": "1",
            "type": "t_uint256"
          },
          {
            "astId": 5014,
            "contract": "contracts/Sale.sol:Sale",
            "label": "price",
            "offset": 0,
            "slot": "2",
            "type": "t_uint256"
          },
          {
            "astId": 5016,
            "contract": "contracts/Sale.sol:Sale",
            "label": "endAt",
            "offset": 0,
            "slot": "3",
            "type": "t_uint256"
          },
          {
            "astId": 5018,
            "contract": "contracts/Sale.sol:Sale",
            "label": "supply",
            "offset": 0,
            "slot": "4",
            "type": "t_uint256"
          },
          {
            "astId": 5020,
            "contract": "contracts/Sale.sol:Sale",
            "label": "over",
            "offset": 0,
            "slot": "5",
            "type": "t_bool"
          },
          {
            "astId": 5022,
            "contract": "contracts/Sale.sol:Sale",
            "label": "timelock",
            "offset": 0,
            "slot": "6",
            "type": "t_uint256"
          }
        ],
        "numberOfBytes": "224"
      },
      "t_struct(RoleData)89_storage": {
        "encoding": "inplace",
        "label": "struct AccessControlUpgradeable.RoleData",
        "members": [
          {
            "astId": 86,
            "contract": "contracts/Sale.sol:Sale",
            "label": "members",
            "offset": 0,
            "slot": "0",
            "type": "t_mapping(t_address,t_bool)"
          },
          {
            "astId": 88,
            "contract": "contracts/Sale.sol:Sale",
            "label": "adminRole",
            "offset": 0,
            "slot": "1",
            "type": "t_bytes32"
          }
        ],
        "numberOfBytes": "64"
      },
      "t_uint256": {
        "encoding": "inplace",
        "label": "uint256",
        "numberOfBytes": "32"
      }
    }
  }
}